:0A0000000C9439000C9400000C94DD
:10000A0000000C9400000C9400000C9400000C9466
:10001A0000000C9400000C9400000C9400000C9456
:10002A0000000C9400000C9400000C9400000C9446
:10003A0000000C9400000C9456000C9400000C94E0
:10004A0000000C9400000C9400000C9400000C9426
:10005A0000000C9400000C9400000C9400004079FD
:10006A002430191202780010F894EE27EFBBF1E061
:10007A00F5BFE5BF8DE0A2E0BB27ED938A95E9F7CE
:10008A0080E098E0A0E0B1E0ED930197E9F7E0E0C5
:10009A00EEBBEFEFEDBFE8E0EEBFC0E0D3E00C94BB
:1000AA0006016A937A93EA93FA93EFB7EA93E09197
:1000BA000C03F0910D0360910E0370910F03EF5F33
:1000CA00FF4F6F4F7F4FE0930C03F0930D03609344
:1000DA000E0370930F03E0911003F09111036091E6
:1000EA00120370911303EF5FFF4F6F4F7F4FE0933F
:1000FA001003F09311036093120370931303E991B1
:10010A00EFBFF991E991799169911895AA93E881DC
:10011A00E064E0937C0085E38A95F1F7E0917A0048
:10012A00E064E0937A00E0917A00E071E1F3E09113
:10013A007A00E061E0937A00E0917800F09179002A
:10014A0021960895BA93AA93C0D1A436E0E0BE07D7
:10015A00E0E08E07E0E09E0740F4189905C02A986F
:10016A002998BCD1C3D1289A4AC0AFD1A83CE0E0B3
:10017A00BE07E0E08E07E0E09E0768F419990AC01E
:10018A00289829982A98B7D1DF01FB01EA1BFB0BB3
:10019A00ADD1299A34C099D1AC32E1E0BE07E0E092
:1001AA008E07E0E09E0710F51A991FC029982A9831
:1001BA0095D1A4E6B0E00E94D302A881B9810E9439
:1001CA00FE02EA1BFB0BFF93EF9395D1DB01AE1BFB
:1001DA00BF0BEAE0F0E00E94D302AF91BF910E9408
:1001EA00FE02EA1BFB0B82D12A9A09C0E0E0E093E7
:1001FA000C03E0930D03E0930E03E0930F032296A2
:10020A000895E0E8E0936100E0E0E0936100E7E050
:10021A00E4B9E0E0E5B9E0E2E7B9EFE1E8B9EFE730
:10022A00EAB9EBB9E0E0E4BDE1E0E5BDE0E0E6BD56
:10023A00E7BDE8BDE0938000E0938100E09385008C
:10024A00E0938400E0938700E0938600E0938900BE
:10025A00E0938800E0938B00E0938A00E093B60075
:10026A00E093B000E093B100E093B200E093B300F2
:10027A00E093B400E1E0E0936E00E0E0E0936F0009
:10028A00E0937000E0936900EDBBE0936800E093AF
:10029A00C100E0E8E0BFE0E0E0937F00E0937E0089
:1002AA00E0E4E0937C00E4E8E0937A00E0E0E093A5
:1002BA007B00ECBDE093BC00789428982998ECE088
:1002CA00EBB92BD135D13DD1E8F3A0E01FDFE093A4
:1002DA000A03F0930B03A1E019DFE0930603F093FE
:1002EA000703A2E013DFE0930203F0930303A3E002
:1002FA000DDFDE2EEF2EA4E009DF9E2EAF2EE8E6FC
:10030A00F0E004900BB8EAE0E0931403A0E0FEDE0C
:10031A00E0930803F0930903A1E0F8DEE0930403F5
:10032A00F0930503A2E0F2DEE0930003F0930103E9
:10033A00A3E0ECDEBE2ECF2EA4E0E8DE7E2E8F2ECA
:10034A00A0910A03B0910B031297E0910803F09170
:10035A000903EA17FB0728F4E4E6F0E03E2E4F2EE5
:10036A0008C0E0910803F0910903E0930A03F093AF
:10037A000B03A0910603B09107031397E0910403BE
:10038A00F0910503EA17FB0768F4E4E6F0E0E315E9
:10039A00F40519F4EAE5F0E002C0E0E5F0E03E2EEB
:1003AA004F2E08C0E0910403F0910503E093060381
:1003BA00F0930703A0910203B09103031497E0910D
:1003CA000003F0910103EA17FB0768F4E0E5F0E0A7
:1003DA00E315F40519F4E6E4F0E002C0ECE3F0E01A
:1003EA003E2E4F2E08C0E0910003F0910103E093E6
:1003FA000203F0930303AD2DBE2D1597BA16CB0653
:10040A0068F4ECE3F0E0E315F40519F4E2E3F0E054
:10041A0002C0E8E2F0E03E2E4F2E02C0DB2CEC2CAC
:10042A00A92DBA2D16977A168B0668F4E8E2F0E041
:10043A00E315F40519F4EEE1F0E002C0E4E1F0E0BE
:10044A003E2E4F2E02C0972CA82C0024031404041D
:10045A00D0F57FD06DD0A03FE9E4BE07E2E08E0779
:10046A00E0E09E0720F4A32DB42D6CDEF3CF530CED
:10047A00641C33244424E0911403E150E0931403F0
:10048A0072D04BD076D0F0F3E0911403E030D9F477
:10049A002A98E8EEF3E0E515F60521F4E7EEF3E035
:1004AA005E2E6F2E45D04DD020F4A52DB62D4ADEF6
:1004BA00F9CF5524662457D02A9AEAE0E093140328
:1004CA0048D057D0F0F322CFFFCFA0910C03B091C0
:1004DA000D0380910E0390910F0308952898A88127
:1004EA00B981E4E6F0E00E94EB020895E859FF4F73
:1004FA0004900BB80895A881B981EAE0F0E00E945F
:10050A00EB02BF01A881B981E4E6F0E00E94EB02A8
:10051A00AAE0B0E00E94D30208952A9AE0E0E093AC
:10052A001003E0931103E0931203E0931303089579
:10053A00A0911003B09111038091120390911303BB
:10054A000895A032E1EABE07E7E08E07E0E09E07E1
:10055A000895E0E0E0931003E0931103E09312039F
:10056A00E0931303089528982998E0911403F0E082
:10057A00BDCFDEDFA031E7E2BE07E0E08E07E0E0B4
:10058A009E070895F195E195F0400895FA9FF02DA0
:10059A00EB9FF00DEA9FE02DF10D08951CD0F6DFD8
:1005AA000EF4F0DF08950024112490E1AA0FBB1F76
:1005BA00001C111C0E1A1F0A18F40E0E1F1E01C071
:1005CA00A1609A9599F7FD01D001089504D0EBDF57
:1005DA000EF4D8DF0895E894F7FF02C0D3DF6894D9
:1005EA00B7FF06C0A095B095119600F8039400FADB
:1005FA0008951B2EBF2FF12D1A2EAE2FE12D08952F
:00000001FF
