:080000000C9439000C9400007F
:100008000C9400000C9400000C9400000C94000068
:100018000C9400000C9400000C9400000C94A700B1
:100028000C9400000C9400000C9400000C94000048
:100038000C9400000C9400000C9456000C940000E2
:100048000C9400000C9400000C9400000C94000028
:100058000C9400000C9400000C9400000C94000018
:1000680040792430191202780010F894EE27EFBB7B
:10007800F1E0F5BFE5BF8DE0A2E0BB27ED938A95DF
:10008800E9F780E098E0A0E0B1E0ED930197E9F7A7
:10009800E0E0EEBBEFEFEDBFE8E0EEBFC0E0D3E09D
:1000A8000C9446016A937A93EA93FA93EFB7EA932A
:1000B800E0910C03F0910D0360910E0370910F0312
:1000C800EF5FFF4F6F4F7F4FE0930C03F0930D03EB
:1000D80060930E0370930F03E0911003F0911103E6
:1000E8006091120370911303EF5FFF4F6F4F7F4FC3
:1000F800E0931003F09311036093120370931303BA
:10010800E991EFBFF991E991799169911895AA93CD
:10011800E881E064E0937C0085E38A95F1F7E0915B
:100128007A00E064E0937A00E0917A00E071E1F30C
:10013800E0917A00E061E0937A00E0917800F09134
:10014800790021960895AA93BA93EA93FA93EFB7A0
:10015800EA93F0990CC0E0E8E093B300F09A2C9A87
:10016800E32DEE0FA9ECAE1BA093160328C0A091B7
:100178001503AF5FA0931503A150E32DF42DEE0FE7
:10018800FF1FB0E0EA17FB0740F4E0E0E093150337
:10019800EFEFE093B3002C98F19AF19B10C0E09137
:1001A8001603E150E0931603E03049F4F198F09813
:1001B800E0E0E09315032C9AE0E8E093B300E991BE
:1001C800EFBFF991E991B991A9911895BA93AA93BA
:1001D8006CD2A436E0E0BE07E0E08E07E0E09E07C0
:1001E800B8F3189905C02A98299868D26FD2289A26
:1001F8005CD2A83CE0E0BE07E0E08E07E0E09E07A6
:10020800B8F319990AC0289829982A9864D2DF0166
:10021800FB01EA1BFB0B5AD2299A47D2AC32E1E028
:10022800BE07E0E08E07E0E09E07B8F31A991FC00A
:1002380029982A9843D2A4E6B0E00E94FA03A8813C
:10024800B9810E942504EA1BFB0BFF93EF9343D26D
:10025800DB01AE1BBF0BEAE0F0E00E94FA03AF91AE
:10026800BF910E942504EA1BFB0B30D22A9AE0E0DA
:10027800E0930C03E0930D03E0930E03E0930F0368
:1002880022960895E0E8E0936100E0E0E0936100E1
:10029800EFE1E4B9E0E0E5B9E0E2E7B9EFE1E8B9B8
:1002A800EFE7EAB9EBB9E0E0E4BDE1E0E5BDE0E0A5
:1002B800E6BDE7BDE8BDE0938000E0938100E093F0
:1002C8008500E0938400E0938700E0938600E09344
:1002D8008900E0938800E0938B00E0938A00E09324
:1002E800B600E3ECE093B000E4E0E093B100E0E0B6
:1002F800E093B200EFEFE093B300E0E0E093B400E6
:10030800E1E0E0936E00E0E0E0936F00E1E0E0936D
:100318007000E0E0E0936900EDBBE0936800E093D3
:10032800C100E0E8E0BFE0E0E0937F00E0937E00FA
:10033800E0E4E0937C00E4E8E0937A00E0E0E09316
:100348007B00ECBDE093BC007894332444242898C7
:1003580029982A98ECE0EBB92A9ACFD1D8D1E0D1E4
:10036800E8F3EFEFE093B30033244424E1D1E8E667
:10037800F0E004900BB82C98EAE0E09314032A9874
:10038800A0E0C5DEE0930803F0930903A1E0BFDE17
:10039800E0930403F0930503A2E0B9DEE0930003C1
:1003A800F0930103A3E0B3DEBE2ECF2E2A9AA4E079
:1003B800AEDE7E2E8F2EA0910A03B0910B03139709
:1003C800D8D1EA17FB0798F4E0910A03F0910B03E0
:1003D8003397FF93EF93A0E09ADEAF91BF91EA17AE
:1003E800FB0720F4E4E6F0E03E2E4F2E1AC0A09161
:1003F8000A03B0910B031396BCD1AE17BF0780F464
:10040800E0910A03F0910B033396FF93EF93A0E07A
:100418007EDEAF91BF91AE17BF0708F4AFD101C020
:10042800ADD1A0910603B09107031497ADD1EA1797
:10043800FB07D8F4E0910603F09107033497FF9384
:10044800EF93A1E064DEAF91BF91EA17FB0760F478
:10045800E4E6F0E0E315F40519F4EAE5F0E002C09B
:10046800E0E5F0E03E2E4F2E1AC0A0910603B091B1
:100478000703149689D1AE17BF0780F4E0910603ED
:10048800F09107033496FF93EF93A1E040DEAF911C
:10049800BF91AE17BF0708F47CD101C07AD1A091F3
:1004A8000203B091030315977AD1EA17FB07D8F432
:1004B800E0910203F09103033597FF93EF93A2E0D5
:1004C80026DEAF91BF91EA17FB0760F4E0E5F0E0A4
:1004D800E315F40519F4E6E4F0E002C0ECE3F0E01B
:1004E8003E2E4F2E1AC0A0910203B0910303159619
:1004F80056D1AE17BF0780F4E0910203F0910303D1
:100508003596FF93EF93A2E002DEAF91BF91AE174D
:10051800BF0708F449D101C047D1AD2DBE2D1697AC
:10052800BA16CB06C8F4ED2DFE2D3697FF93EF9340
:10053800A3E0EDDDAF91BF91EA17FB0760F4ECE3B0
:10054800F0E0E315F40519F4E2E3F0E002C0E8E2B4
:10055800F0E03E2E4F2E13C0AD2DBE2D1696AB15D6
:10056800BC0558F4A3E0D3DDAD2DBE2D1696AE170D
:10057800BF0710F4DB2CEC2C02C0DB2CEC2CA92DD3
:10058800BA2D17977A168B06C8F4E92DFA2D3797E6
:10059800FF93EF93A4E0BBDDAF91BF91EA17FB0790
:1005A80060F4E8E2F0E0E315F40519F4EEE1F0E0B8
:1005B80002C0E4E1F0E03E2E4F2E13C0A92DBA2D63
:1005C8001796A715B80558F4A4E0A1DDA92DBA2DF2
:1005D8001796AE17BF0710F4972CA82C02C0972CBB
:1005E800A82C00240314040408F05DC0F098E0E08F
:1005F800E0931503E1E0E5BDE4E0E093B1007DD0D0
:10060800D9D020F4A32DB42DE1DDFACF530C641C0E
:1006180033244424E0911403E150E0931403289810
:1006280029982A98F0E052D02A9AE0911403E030F1
:10063800A9F5E3E0E093B1002A98E52DF62DE85CF2
:10064800F0400E94EB033E2E4F2EE8EEF3E0E51556
:10065800F60521F4E7EEF3E05E2E6F2E4ED0AAD019
:1006680020F4A52DB62DB2DDFACFE5E0E093B10078
:100678004ED056D020F4A52DB62DA8DDF9CF55249F
:1006880066243324442428982998E0911403F0E040
:100698001DD02A9AEAE0E09314032FD0EFEFE093FD
:1006A800B30046D02C986BCEFFCFA0910C03B0912D
:1006B8000D0380910E0390910F0308952898A88147
:1006C800B981E4E6F0E00E9412040895E859FF4F6A
:1006D80004900BB80895A881B981EAE0F0E00E947F
:1006E8001204BF01A881B981E4E6F0E00E94120477
:1006F800AAE0B0E00E94FA030895E0E0E093100356
:10070800E0931103E0931203E09313030895A0917B
:100718001003B0911103809112039091130308956F
:10072800A03EE3E9BE07E4E08E07E0E09E070895F7
:10073800E0E0E093B100E5BD2A98A0E0E8DCE093B2
:100748000A03F0930B03A1E0E2DCE0930603F093C5
:100758000703A2E0DCDCE0930203F0930303A3E0C9
:10076800D6DCDE2EEF2E2A9AA4E0D1DC9E2EAF2E08
:100778000895E0910803F09109030895FADFE093E2
:100788000A03F0930B030895E0910403F091050325
:100798000895FADFE0930603F09307030895E091C4
:1007A8000003F09101030895FADFE0930203F09348
:1007B80003030895ACDFA03FE9E4BE07E2E08E073B
:1007C800E0E09E070895F195E195F0400895F695CB
:1007D800E795F695E795F695E7950895FA9FF02D34
:1007E800EB9FF00DEA9FE02DF10D08951CD0F6DF88
:1007F8000EF4E9DF08950024112490E1AA0FBB1F2D
:10080800001C111C0E1A1F0A18F40E0E1F1E01C020
:10081800A1609A9599F7FD01D001089504D0EBDF06
:100828000EF4D1DF0895E894F7FF02C0CCDF689496
:10083800B7FF06C0A095B095119600F8039400FA8A
:1008480008951B2EBF2FF12D1A2EAE2FE12D0895DE
:00000001FF
