:0A0000000C9439000C9400000C94DD
:10000A0000000C9400000C9400000C9400000C9466
:10001A0000000C9400000C9400000C9400000C9456
:10002A0000000C9400000C9400000C9400000C9446
:10003A0000000C9400000C9456000C9400000C94E0
:10004A0000000C9400000C9400000C9400000C9426
:10005A0000000C9400000C9400000C9400004079FD
:10006A002430191202780010F894EE27EFBBF1E061
:10007A00F5BFE5BF8DE0A2E0BB27ED938A95E9F7CE
:10008A0080E098E0A0E0B1E0ED930197E9F7E0E0C5
:10009A00EEBBEFEFEDBFE8E0EEBFC0E0D3E00C94BB
:1000AA0006016A937A93EA93FA93EFB7EA93E09197
:1000BA000A03F0910B0360910C0370910D03EF5F3B
:1000CA00FF4F6F4F7F4FE0930A03F0930B03609348
:1000DA000C0370930D03E0910E03F0910F036091EE
:1000EA00100370911103EF5FFF4F6F4F7F4FE09343
:1000FA000E03F0930F036093100370931103E991B9
:10010A00EFBFF991E991799169911895AA93E881DC
:10011A00E064E0937C0085E38A95F1F7E0917A0048
:10012A00E064E0937A00E0917A00E071E1F3E09113
:10013A007A00E061E0937A00E0917800F09179002A
:10014A0021960895BA93AA938DD1A436E0E0BE070A
:10015A00E0E08E07E0E09E0740F4189905C02A986F
:10016A00299889D190D1289A4AC07CD1A83CE0E04C
:10017A00BE07E0E08E07E0E09E0768F419990AC01E
:10018A00289829982A9884D1DF01FB01EA1BFB0BE6
:10019A007AD1299A34C066D1AC32E1E0BE07E0E0F8
:1001AA008E07E0E09E0710F51A991FC029982A9831
:1001BA0062D1A4E6B0E00E946B02A881B9810E94D4
:1001CA009602EA1BFB0BFF93EF9362D1DB01AE1B96
:1001DA00BF0BEAE0F0E00E946B02AF91BF910E9470
:1001EA009602EA1BFB0B4FD12A9A09C0E0E0E09382
:1001FA000A03E0930B03E0930C03E0930D032296AA
:10020A000895E0E8E0936100E0E0E0936100E7E050
:10021A00E4B9E0E0E5B9E7B9EFE1E8B9EFE7EAB94F
:10022A00EBB9E0E0E4BDE1E0E5BDE0E0E6BDE7BD55
:10023A00E8BDE0938000E0938100E0938500E093BD
:10024A008400E0938700E0938600E0938900E093BE
:10025A008800E0938B00E0938A00E093B600E09375
:10026A00B000E093B100E093B200E093B300E093F2
:10027A00B400E1E0E0936E00E0E0E0936F00E09309
:10028A007000E0936900EDBBE0936800E093C10061
:10029A00E0E8E0BFE0E0E0937F00E0937E00E0E486
:1002AA00E0937C00E4E8E0937A00E0E0E0937B00EE
:1002BA00ECBDE093BC007894A0E028DFE09308034B
:1002CA00F0930903A1E022DFE0930403F09305030E
:1002DA00A2E01CDFE0930003F0930103A3E016DF22
:1002EA00BE2ECF2EA4E012DF7E2E8F2EA0E00EDFD0
:1002FA00E0930603F0930703A1E008DFE09302030B
:10030A00F0930303A2E002DFDE2EEF2EA3E0FEDE6F
:10031A009E2EAF2EA4E0FADE5E2E6F2EA091080369
:10032A00B09109035497E0910603F0910703EA1785
:10033A00FB0728F4E4E6F0E03E2E4F2E08C0E091D9
:10034A000603F0910703E0930803F0930903A091D1
:10035A000403B09105035497E0910203F09103035B
:10036A00EA17FB0768F4E4E6F0E0E315F40519F48C
:10037A00EFE5F0E002C0EAE5F0E03E2E4F2E08C0BD
:10038A00E0910203F0910303E0930403F093050361
:10039A00A0910003B09101035497DA16EB0668F4B2
:1003AA00EAE5F0E0E315F40519F4E5E5F0E002C04A
:1003BA00E0E5F0E03E2E4F2E04C0D0920003E0921A
:1003CA000103AB2DBC2D54979A16AB0668F4E0E5F1
:1003DA00F0E0E315F40519F4EBE4F0E002C0E6E41A
:1003EA00F0E03E2E4F2E02C0B92CCA2CA72DB82DF4
:1003FA0054975A166B0668F4E6E4F0E0E315F40540
:10040A0019F4E1E4F0E002C0ECE3F0E03E2E4F2EF6
:10041A0002C0752C862C00240314040408F5E0E0BD
:10042A00E0930E03E0930F03E0931003E0931103AC
:10043A00A0910E03B0910F038091100390911103C4
:10044A00A037E1E1BE07E1E08E07E0E09E0720F475
:10045A00A32DB42D77DEECCF33244424EFEFEBB990
:10046A0045CFFFCFA0910A03B0910B0380910C03F3
:10047A0090910D0308952898A881B981E4E6F0E0E7
:10048A000E9483020895E859FF4F04900BB808951B
:10049A00A881B981EAE0F0E00E948302BF01A88145
:1004AA00B981E4E6F0E00E948302AAE0B0E00E948B
:1004BA006B020895F195E195F0400895FA9FF02DA9
:1004CA00EB9FF00DEA9FE02DF10D08951CD0F6DFA9
:1004DA000EF4F0DF08950024112490E1AA0FBB1F47
:1004EA00001C111C0E1A1F0A18F40E0E1F1E01C042
:1004FA00A1609A9599F7FD01D001089504D0EBDF28
:10050A000EF4D8DF0895E894F7FF02C0D3DF6894A9
:10051A00B7FF06C0A095B095119600F8039400FAAB
:10052A0008951B2EBF2FF12D1A2EAE2FE12D0895FF
:00000001FF
