<<<<<<< HEAD
=======
<<<<<<< HEAD
<<<<<<< HEAD
<<<<<<< HEAD
<<<<<<< HEAD
>>>>>>> 2ec2d4f4df1c763f5d05ee2c08667ac2b30db770
:040000000C94390023
:100004000C9400000C9400000C9400000C9400006C
:100014000C9400000C9400000C9400000C9400005C
:100024000C9400000C9400000C9400000C9400004C
:100034000C9400000C9400000C9400000C945600E6
:100044000C9400000C9400000C9400000C9400002C
:100054000C9400000C9400000C9400000C9400001C
:100064000C94000040792430191202780010F8949E
:10007400EE27EFBBF1E0F5BFE5BF8DE0A2E0BB27C3
:10008400ED938A95E9F780E098E0A0E0B1E0ED9384
:100094000197E9F7E0E0EEBBEFEFEDBFE8E0EEBF7C
:1000A400C0E0D3E00C9406016A937A93EA93FA933E
:1000B400EFB7EA93E0911003F091110360911203FA
:1000C40070911303EF5FFF4F6F4F7F4FE093100367
:1000D400F09311036093120370931303E0911403DC
:1000E400F09115036091160370911703EF5FFF4FB2
:1000F4006F4F7F4FE0931403F0931503609316033F
:1001040070931703E991EFBFF991E991799169919E
:100114001895AA93E881E064E0937C0085E38A95CE
:10012400F1F7E0917A00E064E0937A00E0917A00DC
:10013400E071E1F3E0917A00E061E0937A00E0910C
:100144007800F091790021960895BA93AA931ED26B
:10015400A436E0E0BE07E0E08E07E0E09E0740F44E
:10016400189905C02A9829981AD221D2289A4AC0E7
:100174000DD2A83CE0E0BE07E0E08E07E0E09E0779
:1001840068F419990AC0289829982A9815D2DF0189
:10019400FB01EA1BFB0B0BD2299A34C0F7D1AC321A
:1001A400E1E0BE07E0E08E07E0E09E0710F51A9953
:1001B4001FC029982A98F3D1A4E6B0E00E9428032E
:1001C400A881B9810E945303EA1BFB0BFF93EF93B1
:1001D400F3D1DB01AE1BBF0BEAE0F0E00E94280381
:1001E400AF91BF910E945303EA1BFB0BE0D12A9A03
:1001F40009C0E0E0E0931003E0931103E0931203DD
:10020400E093130322960895E0E8E0936100E0E0B0
:10021400E0936100E7E0E4B9E0E0E5B9E0E2E7B9E2
:10022400EFE1E8B9EFE7EAB9EBB9E0E0E4BDE1E01A
:10023400E5BDE0E0E6BDE7BDE8BDE0938000E09306
:100244008100E0938500E0938400E0938700E093CD
:100254008600E0938900E0938800E0938B00E093AC
:100264008A00E093B600E093B000E093B100E0931D
:10027400B200E093B300E093B400E1E0E0936E00D9
:10028400E0E0E0936F00E0937000E0936900EDBB61
:10029400E0936800E093C100E0E8E0BFE0E0E093B1
:1002A4007F00E0937E00E0E4E0937C00E4E8E093E8
:1002B4007A00E0E0E0937B00ECBDE093BC0078942E
:1002C400A0E027DFE0930E03F0930F03A1E021DF0A
:1002D400E0930A03F0930B03A2E01BDFE093060311
:1002E400F0930703A3E015DFE0930203F093030305
:1002F400A4E00FDFDE2EEF2EEAE0E0931803A0E087
:1003040008DFE0930C03F0930D03A1E002DFE09318
:100314000803F0930903A2E0FCDEE0930403F093E6
:100324000503A3E0F6DEE0930003F0930103A4E0E9
:10033400F0DEBE2ECF2EA0910E03B0910F03549782
:10034400E0910C03F0910D03EA17FB0728F4E4E6AF
:10035400F0E03E2E4F2E08C0E0910C03F0910D0307
:10036400E0930E03F0930F03A0910A03B0910B03E3
:100374005497E0910803F0910903EA17FB0768F426
:10038400E4E6F0E0E315F40519F4EAE5F0E002C070
:10039400E0E5F0E03E2E4F2E08C0E0910803F09116
:1003A4000903E0930A03F0930B03A0910603B091B1
:1003B40007035497E0910403F0910503EA17FB0740
:1003C40068F4E0E5F0E0E315F40519F4E6E4F0E0A0
:1003D40002C0ECE3F0E03E2E4F2E08C0E09104038F
:1003E400F0910503E0930603F0930703A091020341
:1003F400B09103035497E0910003F0910103EA17CD
:10040400FB0768F4ECE3F0E0E315F40519F4E2E328
:10041400F0E002C0E8E2F0E03E2E4F2E08C0E0918A
:100424000003F0910103E0930203F0930303AD2D65
:10043400BE2D5497BA16CB0668F4E8E2F0E0E31553
:10044400F40519F4EEE1F0E002C0E4E1F0E03E2E40
:100454004F2E02C0DB2CEC2C00240314040408F0FF
:1004640093C0BCD0C5D0CDD020F4A32DB42D6DDE67
:10047400F9CFE4E6F0E0E315F40541F490900E03BF
:10048400A0900F0370900C0380900D03E0E5F0E062
:10049400E315F40541F490900A03A0900B037090C7
:1004A400080380900903ECE3F0E0E315F40541F45C
:1004B40090900603A09007037090040380900503B6
:1004C400E8E2F0E0E315F40541F490900203A09013
:1004D40003037090000380900103E4E1F0E0E3156E
:1004E400F40521F49D2CAE2C7B2C8C2C92D097D02F
:1004F400F0F374D09DD028F4A92DBA2D589725DE99
:10050400F9CF87D08CD0F0F369D092D028F4A72DFE
:10051400B82D58971ADEF9CF28982998EFEFEBB940
:100524002A98530C641C33244424E0911803E150AA
:10053400E093180328982998F0E039D02A9AE0919A
:100544001803E03009F52A9849D072D0F0F3E8EEA8
:10055400F3E0E515F60521F4E7EEF3E05E2E6F2EE9
:1005640047D0A032E1EABE07E7E08E07E0E09E074D
:1005740020F4A52DB62DE9DDF3CF55246624EAE059
:10058400E0931803EFEFEBB9BACEFFCFA0911003BD
:10059400B091110380911203909113030895289848
:1005A400A881B981E4E6F0E00E9440030895E85987
:1005B400FF4F04900BB80895A881B981EAE0F0E0F8
:1005C4000E944003BF01A881B981E4E6F0E00E94E3
:1005D4004003AAE0B0E00E9428030895E0E0E0931D
:1005E4001403E0931503E0931603E09317030895AF
:1005F400A0911403B09115038091160390911703F1
:100604000895A033E5E7BE07E0E08E07E0E09E072B
:10061400089528982998EFEFEBB92A98DFCFE8DFFF
:10062400A031E7E2BE07E0E08E07E0E09E07089510
:10063400DFDFE7CFF195E195F0400895FA9FF02DC3
:10064400EB9FF00DEA9FE02DF10D08951CD0F6DF2D
:100654000EF4F0DF08950024112490E1AA0FBB1FCB
:10066400001C111C0E1A1F0A18F40E0E1F1E01C0C6
:10067400A1609A9599F7FD01D001089504D0EBDFAC
:100684000EF4D8DF0895E894F7FF02C0D3DF68942E
:10069400B7FF06C0A095B095119600F8039400FA30
:1006A40008951B2EBF2FF12D1A2EAE2FE12D089584
<<<<<<< HEAD
=======
=======
=======
>>>>>>> 5a79a30dbdb728da5f23e01b98e029537c5af980
=======
>>>>>>> 5a79a30dbdb728da5f23e01b98e029537c5af980
=======
>>>>>>> 5a79a30dbdb728da5f23e01b98e029537c5af980
:020000000C945E
:1000020039000C9400000C9400000C9400000C9435
:1000120000000C9400000C9400000C9400000C945E
:1000220000000C9400000C9400000C9400000C944E
:1000320000000C9400000C9400000C9400000C943E
:1000420056000C9400000C9400000C9400000C94D8
:1000520000000C9400000C9400000C9400000C941E
:1000620000000C940000407924301912027800102C
:10007200F894EE27EFBBF1E0F5BFE5BF8DE0A2E01B
:10008200BB27ED938A95E9F780E098E0A0E0B1E024
:10009200ED930197E9F7E0E0EEBBEFEFEDBFE8E0AB
:1000A200EEBFC0E0D3E00C9406016A937A93EA9320
:1000B200FA93EFB7EA93E0911003F0911103609184
:1000C200120370911303EF5FFF4F6F4F7F4FE09367
:1000D2001003F09311036093120370931303E091E2
:1000E2001403F09115036091160370911703EF5FEB
:1000F200FF4F6F4F7F4FE0931403F093150360930C
:10010200160370931703E991EFBFF991E991799181
:1001120069911895AA93E881E064E0937C0085E3F5
:100122008A95F1F7E0917A00E064E0937A00E09139
:100132007A00E071E1F3E0917A00E061E0937A0005
:10014200E0917800F091790021960895BA93AA93EC
:100152002FD2A436E0E0BE07E0E08E07E0E09E0783
:1001620040F4189905C02A9829982BD232D2289A9D
:100172004AC01ED2A83CE0E0BE07E0E08E07E0E005
:100182009E0768F419990AC0289829982A9826D2B5
:10019200DF01FB01EA1BFB0B1CD2299A34C008D2F7
:1001A200AC32E1E0BE07E0E08E07E0E09E0710F52A
:1001B2001A991FC029982A9804D2A4E6B0E00E9496
:1001C2002F03A881B9810E945A03EA1BFB0BFF93FC
:1001D200EF9304D2DB01AE1BBF0BEAE0F0E00E941A
:1001E2002F03AF91BF910E945A03EA1BFB0BF1D17F
:1001F2002A9A09C0E0E0E0931003E0931103E09330
:100202001203E093130322960895E0E8E09361005D
:10021200E0E0E0936100E7E0E4B9E0E0E5B9E0E2C4
:10022200E7B9EFE1E8B9EFE7EAB9EBB9E0E0E4BD3D
:10023200E1E0E5BDE0E0E6BDE7BDE8BDE0938000BA
:10024200E0938100E0938500E0938400E0938700CF
:10025200E0938600E0938900E0938800E0938B00AE
:10026200E0938A00E093B600E093B000E093B1001F
:10027200E093B200E093B300E093B400E1E0E093D6
:100282006E00E0E0E0936F00E0937000E09369009D
:10029200EDBBE0936800E093C100E0E8E0BFE0E07E
:1002A200E0937F00E0937E00E0E4E0937C00E4E8EA
:1002B200E0937A00E0E0E0937B00ECBDE093BC00C9
:1002C2007894A0E027DFE0930E03F0930F03A1E000
:1002D20021DFE0930A03F0930B03A2E01BDFE0931C
:1002E2000603F0930703A3E015DFE0930203F09304
:1002F2000303A4E00FDFDE2EEF2EEAE0E093180303
:10030200A0E008DFE0930C03F0930D03A1E002DF0D
:10031200E0930803F0930903A2E0FCDEE0930403F8
:10032200F0930503A3E0F6DEE0930003F0930103EC
:10033200A4E0F0DEBE2ECF2EA0910E03B0910F03EB
:100342005497E0910C03F0910D03EA17FB0728F490
:10035200E4E6F0E03E2E4F2E08C0E0910C03F0914F
:100362000D03E0930E03F0930F03A0910A03B091E3
:100372000B035497E0910803F0910903EA17FB0776
:1003820068F4E4E6F0E0E315F40519F4EAE5F0E0D8
:1003920002C0E0E5F0E03E2E4F2E08C0E0910803D7
:1003A200F0910903E0930A03F0930B03A091060373
:1003B200B09107035497E0910403F0910503EA1703
:1003C200FB0768F4E0E5F0E0E315F40519F4E6E470
:1003D200F0E002C0ECE3F0E03E2E4F2E08C0E091C8
:1003E2000403F0910503E0930603F0930703A09141
:1003F2000203B09103035497E0910003F0910103CB
:10040200EA17FB0768F4ECE3F0E0E315F40519F4EE
:10041200E2E3F0E002C0E8E2F0E03E2E4F2E08C038
:10042200E0910003F0910103E0930203F0930303D0
:10043200AD2DBE2D5497BA16CB0668F4E8E2F0E073
:10044200E315F40519F4EEE1F0E002C0E4E1F0E0B6
:100452003E2E4F2E02C0DB2CEC2C0024031404048D
:1004620008F0A4C0CDD0D6D0A03AE6E8BE07E1E0BD
:100472008E07E0E09E0720F4A32DB42D67DEF3CFB4
:10048200E4E6F0E0E315F40541F490900E03A09049
:100492000F0370900C0380900D03E0E5F0E0E3158C
:1004A200F40541F490900A03A0900B0370900803A6
:1004B20080900903ECE3F0E0E315F40541F4909039
:1004C2000603A09007037090040380900503E8E2FE
:1004D200F0E0E315F40541F490900203A0900303C9
:1004E2007090000380900103E4E1F0E0E315F4056D
:1004F20021F49D2CAE2C7B2C8C2C95D09AD028F4F8
:10050200A92DBA2D589722DEF9CF8DD083D0A031F4
:10051200E7E2BE07E0E08E07E0E09E07B8F370D0A6
:1005220088D028F4A72DB82D589710DEF9CF289837
:100532002998EFEFEBB92A98530C641C3324442416
:10054200E0911803E150E093180328982998F0E00D
:1005520040D02A9AE0911803E03041F52A9850D011
:1005620059D0A033E5E7BE07E0E08E07E0E09E0742
:10057200B8F3E8EEF3E0E515F60521F4E7EEF3E073
:100582005E2E6F2E47D0A032E1EABE07E7E08E076B
:10059200E0E09E0720F4A52DB62DD8DDF3CF55243B
:1005A2006624EAE0E0931803EFEFEBB9A9CEFFCFA0
:1005B200A0911003B0911103809112039091130343
:1005C20008952898A881B981E4E6F0E00E944703E3
:1005D2000895E859FF4F04900BB80895A881B98196
:1005E200EAE0F0E00E944703BF01A881B981E4E696
:1005F200F0E00E944703AAE0B0E00E942F030895B2
:10060200E0E0E0931403E0931503E0931603E09314
:1006120017030895A0911403B09115038091160356
:1006220090911703089528982998EFEFEBB92A982B
:10063200E7CFF0DFA035E3ECBE07E0E08E07E0E0B5
:100642009E070895F195E195F0400895FA9FF02DE7
:10065200EB9FF00DEA9FE02DF10D08951CD0F6DF1F
:100662000EF4F0DF08950024112490E1AA0FBB1FBD
:10067200001C111C0E1A1F0A18F40E0E1F1E01C0B8
:10068200A1609A9599F7FD01D001089504D0EBDF9E
:100692000EF4D8DF0895E894F7FF02C0D3DF689420
:1006A200B7FF06C0A095B095119600F8039400FA22
:1006B20008951B2EBF2FF12D1A2EAE2FE12D089576
<<<<<<< HEAD
<<<<<<< HEAD
<<<<<<< HEAD
>>>>>>> 5a79a30dbdb728da5f23e01b98e029537c5af980
=======
>>>>>>> 5a79a30dbdb728da5f23e01b98e029537c5af980
=======
>>>>>>> 5a79a30dbdb728da5f23e01b98e029537c5af980
=======
>>>>>>> 5a79a30dbdb728da5f23e01b98e029537c5af980
>>>>>>> 2ec2d4f4df1c763f5d05ee2c08667ac2b30db770
:00000001FF
