:080000000C9439000C9400007F
:100008000C9400000C9400000C9400000C94000068
:100018000C9400000C9400000C9400000C94A700B1
:100028000C9400000C9400000C9400000C94000048
:100038000C9400000C9400000C9456000C940000E2
:100048000C9400000C9400000C9400000C94000028
:100058000C9400000C9400000C9400000C94000018
:1000680040792430191202780010F894EE27EFBB7B
:10007800F1E0F5BFE5BF8DE0A2E0BB27ED938A95DF
:10008800E9F780E098E0A0E0B1E0ED930197E9F7A7
:10009800E0E0EEBBEFEFEDBFE8E0EEBFC0E0D3E09D
:1000A8000C9443016A937A93EA93FA93EFB7EA932D
:1000B800E0910C03F0910D0360910E0370910F0312
:1000C800EF5FFF4F6F4F7F4FE0930C03F0930D03EB
:1000D80060930E0370930F03E0911003F0911103E6
:1000E8006091120370911303EF5FFF4F6F4F7F4FC3
:1000F800E0931003F09311036093120370931303BA
:10010800E991EFBFF991E991799169911895AA93CD
:10011800E881E064E0937C0085E38A95F1F7E0915B
:100128007A00E064E0937A00E0917A00E071E1F30C
:10013800E0917A00E061E0937A00E0917800F09134
:10014800790021960895AA93BA93EA93FA93EFB7A0
:10015800EA93F0990BC0E0E8E093B300F09AE32D3E
:10016800EE0FA9ECAE1BA093160326C0A0911503B1
:10017800AF5FA0931503A150E32DF42DEE0FFF1FE1
:10018800B0E0EA17FB0738F4E0E0E0931503EFEF7F
:10019800E093B300F19AF19B0FC0E0911603E15090
:1001A800E0931603E03041F4F198F098E0E0E09332
:1001B8001503E0E8E093B300E991EFBFF991E99105
:1001C800B991A9911895BA93AA93E5D1A436E0E01C
:1001D800BE07E0E08E07E0E09E07B8F3189905C077
:1001E8002A982998E1D1E8D1289AD5D1A83CE0E00D
:1001F800BE07E0E08E07E0E09E07B8F319990AC051
:10020800289829982A98DDD1DF01FB01EA1BFB0B0E
:10021800D3D1299AC0D1AC32E1E0BE07E0E08E0725
:10022800E0E09E07B8F31A991FC029982A98BCD114
:10023800A4E6B0E00E944203A881B9810E946D0340
:10024800EA1BFB0BFF93EF93BCD1DB01AE1BBF0B8B
:10025800EAE0F0E00E944203AF91BF910E946D0373
:10026800EA1BFB0BA9D12A9AE0E0E0930C03E09388
:100278000D03E0930E03E0930F0322960895E0E840
:10028800E0936100E0E0E0936100EFE0E4B9E0E0D2
:10029800E5B9E0E2E7B9EFE1E8B9EFE7EAB9EBB9C8
:1002A800E0E0E4BDE1E0E5BDE0E0E6BDE7BDE8BDD6
:1002B800E0938000E0938100E0938500E093840060
:1002C800E0938700E0938600E0938900E09388003C
:1002D800E0938B00E0938A00E093B600E3ECE093B0
:1002E800B000E4E0E093B100E0E0E093B200EFEFAB
:1002F800E093B300E0E0E093B400E1E0E0936E0047
:10030800E0E0E0936F00E1E0E0937000E0E0E0936C
:100318006900EDBBE0936800E093C100E0E8E0BF4E
:10032800E0E0E0937F00E0937E00E0E4E0937C006F
:10033800E4E8E0937A00E0E0E0937B00ECBDE09332
:10034800BC00789433244424289829982A98ECE00F
:10035800EBB92A9A48D151D159D1E8F3EFEFE0939C
:10036800B30033244424E0E0E093B10057D1E8E639
:10037800F0E004900BB8EAE0E0931403A0E0C7DED5
:10038800E0930803F0930903A1E0C1DEE0930403BE
:10039800F0930503A2E0BBDEE0930003F0930103B2
:1003A800A3E0B5DEBE2ECF2EA4E0B1DE7E2E8F2ECA
:1003B800A0910A03B0910B031397E0910803F09101
:1003C8000903EA17FB0728F4E4E6F0E03E2E4F2E77
:1003D80008C0E0910803F0910903E0930A03F09341
:1003E8000B03A0910603B09107031397E091040350
:1003F800F0910503EA17FB0768F4E4E6F0E0E3157B
:10040800F40519F4EAE5F0E002C0E0E5F0E03E2E7C
:100418004F2E08C0E0910403F0910503E093060312
:10042800F0930703A0910203B09103031497E0919E
:100438000003F0910103EA17FB0768F4E0E5F0E038
:10044800E315F40519F4E6E4F0E002C0ECE3F0E0AB
:100458003E2E4F2E08C0E0910003F0910103E09377
:100468000203F0930303AD2DBE2D1597BA16CB06E4
:1004780068F4ECE3F0E0E315F40519F4E2E3F0E0E6
:1004880002C0E8E2F0E03E2E4F2E02C0DB2CEC2C3E
:10049800A92DBA2D17977A168B0668F4E8E2F0E0D2
:1004A800E315F40519F4EEE1F0E002C0E4E1F0E050
:1004B8003E2E4F2E02C0972CA82C002403140404AF
:1004C80008F067C0F098E0E0E0931503E1E0E5BDCF
:1004D800E4E0E093B10087D090D0A03FE9E4BE0704
:1004E800E2E08E07E0E09E0720F4A32DB42D6BDE3A
:1004F800F3CF530C641C33244424E0911403E150DB
:10050800E0931403289829982A98F0E055D02A9A5D
:10051800E0911403E03061F5E3E0E093B1002A983C
:10052800E52DF62DE85CF0400E9433033E2E4F2E59
:10053800E8EEF3E0E515F60521F4E7EEF3E05E2ECC
:100548006F2E51D05AD062D020F4A52DB62D3BDEA7
:10055800F9CF552466243324442428982998E09117
:100568001403F0E029D02A9AEAE0E09314033BD080
:10057800EFEFE093B300E0E0E093B10034D03DD07A
:10058800A031E7E2BE07E0E08E07E0E09E07B8F39F
:1005980045D0F4CEFFCFA0910C03B0910D0380910C
:1005A8000E0390910F0308952898A881B981E4E675
:1005B800F0E00E945A030895E859FF4F04900BB8E1
:1005C8000895A881B981EAE0F0E00E945A03BF01CA
:1005D800A881B981E4E6F0E00E945A03AAE0B0E0FD
:1005E8000E9442030895E0E0E0931003E0931103B2
:1005F800E0931203E09313030895A0911003B091C0
:10060800110380911203909113030895A03EE3E92A
:10061800BE07E4E08E07E0E09E070895E0E0E5BD50
:10062800A0E075DDE0930A03F0930B03A1E06FDD12
:10063800E0930603F0930703A2E069DDE093020369
:10064800F0930303A3E063DDDE2EEF2EA4E05FDD6D
:100658009E2EAF2E0895F195E195F0400895F695F8
:10066800E795F695E795F695E7950895FA9FF02DA5
:10067800EB9FF00DEA9FE02DF10D08951CD0F6DFF9
:100688000EF4E9DF08950024112490E1AA0FBB1F9E
:10069800001C111C0E1A1F0A18F40E0E1F1E01C092
:1006A800A1609A9599F7FD01D001089504D0EBDF78
:1006B8000EF4D1DF0895E894F7FF02C0CCDF689408
:1006C800B7FF06C0A095B095119600F8039400FAFC
:1006D80008951B2EBF2FF12D1A2EAE2FE12D089550
:00000001FF
